{
  "contractName": "Escrow",
  "abi": [
    {
      "inputs": [],
      "payable": false,
      "stateMutability": "nonpayable",
      "type": "constructor"
    },
    {
      "constant": true,
      "inputs": [],
      "name": "_category",
      "outputs": [
        {
          "internalType": "string",
          "name": "",
          "type": "string"
        }
      ],
      "payable": false,
      "stateMutability": "view",
      "type": "function"
    },
    {
      "constant": true,
      "inputs": [],
      "name": "_contractee",
      "outputs": [
        {
          "internalType": "address",
          "name": "",
          "type": "address"
        }
      ],
      "payable": false,
      "stateMutability": "view",
      "type": "function"
    },
    {
      "constant": true,
      "inputs": [],
      "name": "_contractor",
      "outputs": [
        {
          "internalType": "address",
          "name": "",
          "type": "address"
        }
      ],
      "payable": false,
      "stateMutability": "view",
      "type": "function"
    },
    {
      "constant": true,
      "inputs": [],
      "name": "_payAMount",
      "outputs": [
        {
          "internalType": "uint256",
          "name": "",
          "type": "uint256"
        }
      ],
      "payable": false,
      "stateMutability": "view",
      "type": "function"
    },
    {
      "constant": true,
      "inputs": [],
      "name": "contractID",
      "outputs": [
        {
          "internalType": "uint256",
          "name": "",
          "type": "uint256"
        }
      ],
      "payable": false,
      "stateMutability": "view",
      "type": "function"
    },
    {
      "constant": true,
      "inputs": [
        {
          "internalType": "uint256",
          "name": "",
          "type": "uint256"
        }
      ],
      "name": "memorandums",
      "outputs": [
        {
          "internalType": "uint256",
          "name": "ID",
          "type": "uint256"
        },
        {
          "internalType": "string",
          "name": "title",
          "type": "string"
        },
        {
          "internalType": "uint256",
          "name": "totalNeeded",
          "type": "uint256"
        },
        {
          "internalType": "uint256",
          "name": "totalReceived",
          "type": "uint256"
        },
        {
          "internalType": "string",
          "name": "description",
          "type": "string"
        },
        {
          "internalType": "string",
          "name": "date",
          "type": "string"
        },
        {
          "internalType": "address payable",
          "name": "contractor",
          "type": "address"
        },
        {
          "internalType": "bool",
          "name": "accepted",
          "type": "bool"
        },
        {
          "internalType": "uint256",
          "name": "timelength",
          "type": "uint256"
        },
        {
          "internalType": "uint256",
          "name": "stage",
          "type": "uint256"
        }
      ],
      "payable": false,
      "stateMutability": "view",
      "type": "function"
    },
    {
      "constant": true,
      "inputs": [
        {
          "internalType": "uint256",
          "name": "",
          "type": "uint256"
        }
      ],
      "name": "payments",
      "outputs": [
        {
          "internalType": "uint256",
          "name": "holdings",
          "type": "uint256"
        },
        {
          "internalType": "address payable",
          "name": "_to",
          "type": "address"
        },
        {
          "internalType": "address payable",
          "name": "_from",
          "type": "address"
        }
      ],
      "payable": false,
      "stateMutability": "view",
      "type": "function"
    },
    {
      "constant": false,
      "inputs": [
        {
          "internalType": "string",
          "name": "title",
          "type": "string"
        },
        {
          "internalType": "uint256",
          "name": "totalNeeded",
          "type": "uint256"
        },
        {
          "internalType": "uint256",
          "name": "totalReceived",
          "type": "uint256"
        },
        {
          "internalType": "string",
          "name": "description",
          "type": "string"
        },
        {
          "internalType": "string",
          "name": "date",
          "type": "string"
        },
        {
          "internalType": "address payable",
          "name": "contractor",
          "type": "address"
        },
        {
          "internalType": "bool",
          "name": "accepted",
          "type": "bool"
        },
        {
          "internalType": "uint256",
          "name": "timelength",
          "type": "uint256"
        },
        {
          "internalType": "uint256",
          "name": "stage",
          "type": "uint256"
        }
      ],
      "name": "createMemo",
      "outputs": [],
      "payable": true,
      "stateMutability": "payable",
      "type": "function"
    },
    {
      "constant": false,
      "inputs": [
        {
          "internalType": "uint256",
          "name": "x",
          "type": "uint256"
        },
        {
          "internalType": "uint256",
          "name": "y",
          "type": "uint256"
        }
      ],
      "name": "pushIn",
      "outputs": [],
      "payable": true,
      "stateMutability": "payable",
      "type": "function"
    },
    {
      "constant": false,
      "inputs": [
        {
          "internalType": "uint256",
          "name": "x",
          "type": "uint256"
        }
      ],
      "name": "request",
      "outputs": [],
      "payable": true,
      "stateMutability": "payable",
      "type": "function"
    },
    {
      "constant": false,
      "inputs": [
        {
          "internalType": "uint256",
          "name": "x",
          "type": "uint256"
        }
      ],
      "name": "pushOut",
      "outputs": [],
      "payable": true,
      "stateMutability": "payable",
      "type": "function"
    },
    {
      "constant": false,
      "inputs": [
        {
          "internalType": "uint256",
          "name": "x",
          "type": "uint256"
        }
      ],
      "name": "getBread",
      "outputs": [
        {
          "internalType": "address",
          "name": "",
          "type": "address"
        }
      ],
      "payable": false,
      "stateMutability": "nonpayable",
      "type": "function"
    }
  ],
  "bytecode": "0x60806040523480156200001157600080fd5b50620000af6040518060600160405280602a815260200162001456602a913960d26000604051806101a0016040528061017b81526020016200148061017b91396040518060400160405280600a81526020017f323032302f30342f3233000000000000000000000000000000000000000000008152507303015d857d5a2538bdba889ef7e2bfeb30c1aefb600061016d60026200015260201b60201c565b6200014c6040518060600160405280602a815260200162001456602a913960d26000604051806101a0016040528061017b81526020016200148061017b91396040518060400160405280600a81526020017f323032302f30342f32330000000000000000000000000000000000000000000081525073b0afa0c6df1f4adef5dd370585dd1bb4971f09da600061016d60026200015260201b60201c565b6200038e565b60056000815480929190600101919050555060405180610140016040528060055481526020018a81526020018981526020018881526020018781526020018681526020018573ffffffffffffffffffffffffffffffffffffffff16815260200184151581526020018381526020018281525060076000600554815260200190815260200160002060008201518160000155602082015181600101908051906020019062000201929190620002df565b506040820151816002015560608201518160030155608082015181600401908051906020019062000234929190620002df565b5060a082015181600501908051906020019062000253929190620002df565b5060c08201518160060160006101000a81548173ffffffffffffffffffffffffffffffffffffffff021916908373ffffffffffffffffffffffffffffffffffffffff16021790555060e08201518160060160146101000a81548160ff02191690831515021790555061010082015181600701556101208201518160080155905050505050505050505050565b828054600181600116156101000203166002900490600052602060002090601f016020900481019282601f106200032257805160ff191683800117855562000353565b8280016001018555821562000353579182015b828111156200035257825182559160200191906001019062000335565b5b50905062000362919062000366565b5090565b6200038b91905b80821115620003875760008160009055506001016200036d565b5090565b90565b6110b8806200039e6000396000f3fe6080604052600436106100a65760003560e01c806391f30bd41161006457806391f30bd4146106c95780639ac1e38f146106f45780639eae3d641461071f578063ce6eb3a11461079a578063d845a4b3146107d2578063ed68689d14610800576100a6565b8062ab2a94146100ab5780630df1f276146101025780631d18f3471461034057806325874f64146103d05780632a037650146105bd57806387d8178914610614575b600080fd5b3480156100b757600080fd5b506100c061082e565b604051808273ffffffffffffffffffffffffffffffffffffffff1673ffffffffffffffffffffffffffffffffffffffff16815260200191505060405180910390f35b61033e600480360361012081101561011957600080fd5b810190808035906020019064010000000081111561013657600080fd5b82018360208201111561014857600080fd5b8035906020019184600183028401116401000000008311171561016a57600080fd5b91908080601f016020809104026020016040519081016040528093929190818152602001838380828437600081840152601f19601f8201169050808301925050505050505091929192908035906020019092919080359060200190929190803590602001906401000000008111156101e157600080fd5b8201836020820111156101f357600080fd5b8035906020019184600183028401116401000000008311171561021557600080fd5b91908080601f016020809104026020016040519081016040528093929190818152602001838380828437600081840152601f19601f8201169050808301925050505050505091929192908035906020019064010000000081111561027857600080fd5b82018360208201111561028a57600080fd5b803590602001918460018302840111640100000000831117156102ac57600080fd5b91908080601f016020809104026020016040519081016040528093929190818152602001838380828437600081840152601f19601f820116905080830192505050505050509192919290803573ffffffffffffffffffffffffffffffffffffffff1690602001909291908035151590602001909291908035906020019092919080359060200190929190505050610854565b005b34801561034c57600080fd5b506103556109db565b6040518080602001828103825283818151815260200191508051906020019080838360005b8381101561039557808201518184015260208101905061037a565b50505050905090810190601f1680156103c25780820380516001836020036101000a031916815260200191505b509250505060405180910390f35b3480156103dc57600080fd5b50610409600480360360208110156103f357600080fd5b8101908080359060200190929190505050610a79565b604051808b8152602001806020018a815260200189815260200180602001806020018873ffffffffffffffffffffffffffffffffffffffff1673ffffffffffffffffffffffffffffffffffffffff1681526020018715151515815260200186815260200185815260200184810384528d818151815260200191508051906020019080838360005b838110156104ab578082015181840152602081019050610490565b50505050905090810190601f1680156104d85780820380516001836020036101000a031916815260200191505b5084810383528a818151815260200191508051906020019080838360005b838110156105115780820151818401526020810190506104f6565b50505050905090810190601f16801561053e5780820380516001836020036101000a031916815260200191505b50848103825289818151815260200191508051906020019080838360005b8381101561057757808201518184015260208101905061055c565b50505050905090810190601f1680156105a45780820380516001836020036101000a031916815260200191505b509d505050505050505050505050505060405180910390f35b3480156105c957600080fd5b506105d2610cc2565b604051808273ffffffffffffffffffffffffffffffffffffffff1673ffffffffffffffffffffffffffffffffffffffff16815260200191505060405180910390f35b34801561062057600080fd5b5061064d6004803603602081101561063757600080fd5b8101908080359060200190929190505050610ce8565b604051808481526020018373ffffffffffffffffffffffffffffffffffffffff1673ffffffffffffffffffffffffffffffffffffffff1681526020018273ffffffffffffffffffffffffffffffffffffffff1673ffffffffffffffffffffffffffffffffffffffff168152602001935050505060405180910390f35b3480156106d557600080fd5b506106de610d52565b6040518082815260200191505060405180910390f35b34801561070057600080fd5b50610709610d58565b6040518082815260200191505060405180910390f35b34801561072b57600080fd5b506107586004803603602081101561074257600080fd5b8101908080359060200190929190505050610d5e565b604051808273ffffffffffffffffffffffffffffffffffffffff1673ffffffffffffffffffffffffffffffffffffffff16815260200191505060405180910390f35b6107d0600480360360408110156107b057600080fd5b810190808035906020019092919080359060200190929190505050610da3565b005b6107fe600480360360208110156107e857600080fd5b8101908080359060200190929190505050610ec2565b005b61082c6004803603602081101561081657600080fd5b8101908080359060200190929190505050610f40565b005b600160009054906101000a900473ffffffffffffffffffffffffffffffffffffffff1681565b60056000815480929190600101919050555060405180610140016040528060055481526020018a81526020018981526020018881526020018781526020018681526020018573ffffffffffffffffffffffffffffffffffffffff168152602001841515815260200183815260200182815250600760006005548152602001908152602001600020600082015181600001556020820151816001019080519060200190610901929190610fde565b5060408201518160020155606082015181600301556080820151816004019080519060200190610932929190610fde565b5060a082015181600501908051906020019061094f929190610fde565b5060c08201518160060160006101000a81548173ffffffffffffffffffffffffffffffffffffffff021916908373ffffffffffffffffffffffffffffffffffffffff16021790555060e08201518160060160146101000a81548160ff02191690831515021790555061010082015181600701556101208201518160080155905050505050505050505050565b60008054600181600116156101000203166002900480601f016020809104026020016040519081016040528092919081815260200182805460018160011615610100020316600290048015610a715780601f10610a4657610100808354040283529160200191610a71565b820191906000526020600020905b815481529060010190602001808311610a5457829003601f168201915b505050505081565b6007602052806000526040600020600091509050806000015490806001018054600181600116156101000203166002900480601f016020809104026020016040519081016040528092919081815260200182805460018160011615610100020316600290048015610b2b5780601f10610b0057610100808354040283529160200191610b2b565b820191906000526020600020905b815481529060010190602001808311610b0e57829003601f168201915b505050505090806002015490806003015490806004018054600181600116156101000203166002900480601f016020809104026020016040519081016040528092919081815260200182805460018160011615610100020316600290048015610bd55780601f10610baa57610100808354040283529160200191610bd5565b820191906000526020600020905b815481529060010190602001808311610bb857829003601f168201915b505050505090806005018054600181600116156101000203166002900480601f016020809104026020016040519081016040528092919081815260200182805460018160011615610100020316600290048015610c735780601f10610c4857610100808354040283529160200191610c73565b820191906000526020600020905b815481529060010190602001808311610c5657829003601f168201915b5050505050908060060160009054906101000a900473ffffffffffffffffffffffffffffffffffffffff16908060060160149054906101000a900460ff1690806007015490806008015490508a565b600260009054906101000a900473ffffffffffffffffffffffffffffffffffffffff1681565b60086020528060005260406000206000915090508060000154908060010160009054906101000a900473ffffffffffffffffffffffffffffffffffffffff16908060020160009054906101000a900473ffffffffffffffffffffffffffffffffffffffff16905083565b60055481565b60045481565b6000806008600084815260200190815260200160002060010160009054906101000a900473ffffffffffffffffffffffffffffffffffffffff16905080915050919050565b60405180606001604052808281526020013373ffffffffffffffffffffffffffffffffffffffff1681526020013373ffffffffffffffffffffffffffffffffffffffff16815250600860008481526020019081526020016000206000820151816000015560208201518160010160006101000a81548173ffffffffffffffffffffffffffffffffffffffff021916908373ffffffffffffffffffffffffffffffffffffffff16021790555060408201518160020160006101000a81548173ffffffffffffffffffffffffffffffffffffffff021916908373ffffffffffffffffffffffffffffffffffffffff16021790555090505060076000838152602001908152602001600020600801600081548092919060010191905055505050565b336008600083815260200190815260200160002060010160006101000a81548173ffffffffffffffffffffffffffffffffffffffff021916908373ffffffffffffffffffffffffffffffffffffffff160217905550600760008281526020019081526020016000206008016000815480929190600101919050555050565b6008600082815260200190815260200160002060010160009054906101000a900473ffffffffffffffffffffffffffffffffffffffff1673ffffffffffffffffffffffffffffffffffffffff166108fc614e209081150290604051600060405180830381858888f19350505050158015610fbe573d6000803e3d6000fd5b506000600860008381526020019081526020016000206000018190555050565b828054600181600116156101000203166002900490600052602060002090601f016020900481019282601f1061101f57805160ff191683800117855561104d565b8280016001018555821561104d579182015b8281111561104c578251825591602001919060010190611031565b5b50905061105a919061105e565b5090565b61108091905b8082111561107c576000816000905550600101611064565b5090565b9056fea265627a7a72315820d0b7cae75ec0f81062e95cccc63ac4ed1412ad05015efc1a705fa5ee7c2b6ce364736f6c634300051000324272617a696c20536f757468204166726963612041746c616e746963204661726d65727320756e696f6e696e636c7573696f6e20696e207468697320627569736e657373206d656d6f72616e64756d2c2073746970756c61746573207468617420616c6c2070617274696369706174696e67207061727469657320666163696c6c6974617465207472616465206f662063726f7073207573696e67207468697320736d61727420636f6e74726163742e204f6e65206d757374207573652068617665206174206c6561737420333030302420696e206361706974616c20746f2070617274696369706174652c204f6e65206d7573742073656e642074686569722066756e647320746f207468697320736d61727420636f6e74726163742077686963682077696c6c206265206f76657276696577656420627920616e2061726269747261746f72207175617465726c792077686f2077696c6c207265616c6f636174652066756e647320746f2070617274696369706174696e67206261736564206f6e20746865206b67206f662063726f707320746865792e2e2e20626c616820626c6168",
  "source": "pragma solidity >=0.4.21 <0.7.0;\n\ncontract Escrow{\n\nstring public _category;\naddress public _contractor;\naddress public _contractee;\naddress initiator ;\nuint public _payAMount;\nuint public contractID;\nuint c;\n\n\nstruct memorandum {\n        uint ID;\n        string title;\n        uint totalNeeded;\n        uint totalReceived;\n        string description;\n        string date;\n        address payable contractor;\n        bool accepted;\n        uint timelength;\n        uint stage;\n\n}\n\n\nstruct parties{\n        uint holdings;\n        address payable _to;\n        address payable _from;\n }\n\n//A mapping that connects each written contract with a unique id number\nmapping(uint => memorandum) public memorandums;\nmapping(uint => parties) public payments;\n\n\n\nconstructor  () public {\n        createMemo(  \"Brazil South Africa Atlantic Farmers union\", 210, 0, \n        \"inclusion in this buisness memorandum, stipulates that all participating parties facillitate trade of crops using this smart contract. One must use have at least 3000$ in capital to participate, One must send their funds to this smart contract which will be overviewed by an arbitrator quaterly who will realocate funds to participating based on the kg of crops they... blah blah\", \n        \"2020/04/23\", 0x03015D857D5a2538Bdba889eF7e2bfEb30C1aEFB, false, 365, 2);\n        createMemo(  \"Brazil South Africa Atlantic Farmers union\", 210, 0, \n        \"inclusion in this buisness memorandum, stipulates that all participating parties facillitate trade of crops using this smart contract. One must use have at least 3000$ in capital to participate, One must send their funds to this smart contract which will be overviewed by an arbitrator quaterly who will realocate funds to participating based on the kg of crops they... blah blah\", \n        \"2020/04/23\", 0xB0AFA0c6DF1F4AdeF5dd370585DD1Bb4971f09da, false, 365, 2);\n\n}\n\n\nfunction createMemo (\n      string memory title,\n      uint totalNeeded,\n      uint totalReceived,\n      string memory description,\n      string memory date,\n      address payable contractor,\n      bool accepted,\n      uint timelength,\n      uint stage) public payable{\n              contractID ++;\n              memorandums[contractID] = memorandum(contractID,  title, totalNeeded, totalReceived,  description, date, contractor, accepted, timelength, stage);\n      }\n\nfunction pushIn(uint x, uint y) public payable {\n        payments[x] = parties(y, msg.sender, msg.sender);\n        memorandums[x].stage ++;\n    }\n\nfunction request(uint x) public payable {\n        payments[x]._to =  msg.sender;\n        memorandums[x].stage ++;\n    }\n\nfunction pushOut(uint x) public payable {\n        payments[x]._to.transfer(20000);\n        payments[x].holdings = 0;\n\n    }\n\n\nfunction getBread(uint x) public returns(address){\n        address _to = payments[x]._to;\n        return _to;\n\n}\n\n}",
  "sourcePath": "/home/oem/Negotium/contracts/Escrow.sol",
  "compiler": {
    "name": "solc",
    "version": "0.5.16+commit.9c3226ce.Emscripten.clang"
  },
  "schemaVersion": "3.1.0",
  "updatedAt": "2020-05-28T22:18:24.525Z",
  "networkType": "ethereum",
  "devdoc": {
    "methods": {}
  },
  "userdoc": {
    "methods": {}
  }
}