{
  "contractName": "escrow",
  "abi": [
    {
      "constant": true,
      "inputs": [],
      "name": "_category",
      "outputs": [
        {
          "internalType": "string",
          "name": "",
          "type": "string"
        }
      ],
      "payable": false,
      "stateMutability": "view",
      "type": "function"
    },
    {
      "constant": true,
      "inputs": [],
      "name": "_comish",
      "outputs": [
        {
          "internalType": "uint256",
          "name": "",
          "type": "uint256"
        }
      ],
      "payable": false,
      "stateMutability": "view",
      "type": "function"
    },
    {
      "constant": true,
      "inputs": [],
      "name": "_contractor",
      "outputs": [
        {
          "internalType": "address",
          "name": "",
          "type": "address"
        }
      ],
      "payable": false,
      "stateMutability": "view",
      "type": "function"
    },
    {
      "constant": true,
      "inputs": [],
      "name": "_payAMount",
      "outputs": [
        {
          "internalType": "uint256",
          "name": "",
          "type": "uint256"
        }
      ],
      "payable": false,
      "stateMutability": "view",
      "type": "function"
    },
    {
      "constant": true,
      "inputs": [],
      "name": "_worker",
      "outputs": [
        {
          "internalType": "address",
          "name": "",
          "type": "address"
        }
      ],
      "payable": false,
      "stateMutability": "view",
      "type": "function"
    },
    {
      "constant": true,
      "inputs": [],
      "name": "escrowfunds",
      "outputs": [
        {
          "internalType": "uint256",
          "name": "",
          "type": "uint256"
        }
      ],
      "payable": false,
      "stateMutability": "view",
      "type": "function"
    },
    {
      "constant": true,
      "inputs": [],
      "name": "finalized",
      "outputs": [
        {
          "internalType": "bool",
          "name": "",
          "type": "bool"
        }
      ],
      "payable": false,
      "stateMutability": "view",
      "type": "function"
    },
    {
      "constant": true,
      "inputs": [],
      "name": "initiated",
      "outputs": [
        {
          "internalType": "bool",
          "name": "",
          "type": "bool"
        }
      ],
      "payable": false,
      "stateMutability": "view",
      "type": "function"
    },
    {
      "constant": false,
      "inputs": [],
      "name": "setCate",
      "outputs": [],
      "payable": false,
      "stateMutability": "nonpayable",
      "type": "function"
    },
    {
      "constant": false,
      "inputs": [
        {
          "internalType": "address",
          "name": "",
          "type": "address"
        },
        {
          "internalType": "address",
          "name": "",
          "type": "address"
        },
        {
          "internalType": "uint256",
          "name": "",
          "type": "uint256"
        }
      ],
      "name": "JobEscrow",
      "outputs": [],
      "payable": false,
      "stateMutability": "nonpayable",
      "type": "function"
    }
  ],
  "bytecode": "0x60806040526000600460006101000a81548160ff0219169083151502179055506000600460016101000a81548160ff02191690831515021790555034801561004657600080fd5b50610732806100566000396000f3fe608060405234801561001057600080fd5b506004361061009d5760003560e01c80639f118536116100665780639f11853614610205578063b3f05b9714610227578063bf4a7d6c14610249578063c1faaacc14610293578063dfb05cdc146102b15761009d565b8062ab2a94146100a25780631d18f347146100ec57806321e00ef11461016f57806335e3685f146101dd5780639ac1e38f146101e7575b600080fd5b6100aa6102cf565b604051808273ffffffffffffffffffffffffffffffffffffffff1673ffffffffffffffffffffffffffffffffffffffff16815260200191505060405180910390f35b6100f46102f5565b6040518080602001828103825283818151815260200191508051906020019080838360005b83811015610134578082015181840152602081019050610119565b50505050905090810190601f1680156101615780820380516001836020036101000a031916815260200191505b509250505060405180910390f35b6101db6004803603606081101561018557600080fd5b81019080803573ffffffffffffffffffffffffffffffffffffffff169060200190929190803573ffffffffffffffffffffffffffffffffffffffff16906020019092919080359060200190929190505050610393565b005b6101e56105ac565b005b6101ef6105fa565b6040518082815260200191505060405180910390f35b61020d610600565b604051808215151515815260200191505060405180910390f35b61022f610613565b604051808215151515815260200191505060405180910390f35b610251610626565b604051808273ffffffffffffffffffffffffffffffffffffffff1673ffffffffffffffffffffffffffffffffffffffff16815260200191505060405180910390f35b61029b61064c565b6040518082815260200191505060405180910390f35b6102b9610652565b6040518082815260200191505060405180910390f35b600160009054906101000a900473ffffffffffffffffffffffffffffffffffffffff1681565b60008054600181600116156101000203166002900480601f01602080910402602001604051908101604052809291908181526020018280546001816001161561010002031660029004801561038b5780601f106103605761010080835404028352916020019161038b565b820191906000526020600020905b81548152906001019060200180831161036e57829003601f168201915b505050505081565b600073ffffffffffffffffffffffffffffffffffffffff16600160009054906101000a900473ffffffffffffffffffffffffffffffffffffffff1673ffffffffffffffffffffffffffffffffffffffff1614156103ef57600080fd5b600073ffffffffffffffffffffffffffffffffffffffff16600260009054906101000a900473ffffffffffffffffffffffffffffffffffffffff1673ffffffffffffffffffffffffffffffffffffffff16141561044b57600080fd5b600160009054906101000a900473ffffffffffffffffffffffffffffffffffffffff1673ffffffffffffffffffffffffffffffffffffffff16600260009054906101000a900473ffffffffffffffffffffffffffffffffffffffff1673ffffffffffffffffffffffffffffffffffffffff1614156104c857600080fd5b600160009054906101000a900473ffffffffffffffffffffffffffffffffffffffff1673ffffffffffffffffffffffffffffffffffffffff163373ffffffffffffffffffffffffffffffffffffffff161461052257600080fd5b600654600354016005541461053657600080fd5b60008090506000600160009054906101000a900473ffffffffffffffffffffffffffffffffffffffff1690506000600260009054906101000a900473ffffffffffffffffffffffffffffffffffffffff1690506001600460006101000a81548160ff021916908315150217905550505050505050565b6040518060400160405280600a81526020017f5363686f6f6c574f726b00000000000000000000000000000000000000000000815250600090805190602001906105f7929190610658565b50565b60035481565b600460009054906101000a900460ff1681565b600460019054906101000a900460ff1681565b600260009054906101000a900473ffffffffffffffffffffffffffffffffffffffff1681565b60065481565b60055481565b828054600181600116156101000203166002900490600052602060002090601f016020900481019282601f1061069957805160ff19168380011785556106c7565b828001600101855582156106c7579182015b828111156106c65782518255916020019190600101906106ab565b5b5090506106d491906106d8565b5090565b6106fa91905b808211156106f65760008160009055506001016106de565b5090565b9056fea265627a7a72315820e79484b49ce6d466a496a7749f7db79b9cc72fb2cbbb78fcebd3f71392f42afb64736f6c63430005100032",
  "source": "pragma solidity >=0.4.21 <0.7.0;\n\ncontract escrow{\n\n//The employer, employee and payment amount\nstring public _category;\naddress public _contractor;\naddress public _worker;\nuint public _payAMount;\nfunction setCate () public {\n  _category = \"SchoolWOrk\";\n}\n\n// boolean that checks when the job has been accepted\nbool public initiated = false;\n\n//boolean that checks if the job has been completed.\nbool public finalized = false;\n\n//An integer that measures the value of the escrow funds\nuint public escrowfunds;\n\n//An integer that denotes the site comission fee based on the Job Payment Payment AMount\nuint public _comish;\n\nfunction JobEscrow(\n     address,\n     address,\n     uint\n  ) public {\n    // require _seller and _buyer to be non-zero, ie legitamite addresses, and unique.\n    require(_contractor != address(0));\n    require(_worker != address(0));\n    require(_worker != _contractor);\n\n    // require the contract creator to be either _buyer or _seller\n    require(msg.sender == _contractor );\n\n    // require the money sent to escrow to be at least the payment of the job plus the comission.\n    require(escrowfunds == _payAMount + _comish);\n    \n    // ensure variable seet to false\n    bool escrowFullyFunded = false;\n\n    // assign trade parties\n    address employer = _contractor; //the person offering the Job\n    address worker = _worker; //the person accepting the job\n\n    // set state to initiated\n    initiated = true;\n\n    // event emission\n    //emit Initiated(msg.sender, buyer, seller, _purchaseAmount);\n    //emit Terms(purchaseAmount, totalEscrowAmount, buyerRequiredEscrow, sellerRequiredEscrow);\n  }\n\n\n\n\n}",
  "sourcePath": "/home/oem/InternationalOddJobs/contracts/Escrow.sol",
  "compiler": {
    "name": "solc",
    "version": "0.5.16+commit.9c3226ce.Emscripten.clang"
  },
  "schemaVersion": "3.1.0",
  "updatedAt": "2020-05-18T21:33:13.545Z",
  "devdoc": {
    "methods": {}
  },
  "userdoc": {
    "methods": {}
  }
}