{
  "contractName": "Pay",
  "abi": [
    {
      "inputs": [],
      "payable": false,
      "stateMutability": "nonpayable",
      "type": "constructor"
    },
    {
      "anonymous": false,
      "inputs": [
        {
          "indexed": false,
          "internalType": "address",
          "name": "_from",
          "type": "address"
        },
        {
          "indexed": false,
          "internalType": "address payable",
          "name": "_to",
          "type": "address"
        },
        {
          "indexed": false,
          "internalType": "uint256",
          "name": "holdings",
          "type": "uint256"
        }
      ],
      "name": "Payment",
      "type": "event"
    },
    {
      "constant": true,
      "inputs": [
        {
          "internalType": "uint256",
          "name": "",
          "type": "uint256"
        }
      ],
      "name": "payments",
      "outputs": [
        {
          "internalType": "uint256",
          "name": "holdings",
          "type": "uint256"
        },
        {
          "internalType": "address payable",
          "name": "_to",
          "type": "address"
        },
        {
          "internalType": "address payable",
          "name": "_from",
          "type": "address"
        }
      ],
      "payable": false,
      "stateMutability": "view",
      "type": "function"
    },
    {
      "constant": false,
      "inputs": [
        {
          "internalType": "uint256",
          "name": "x",
          "type": "uint256"
        }
      ],
      "name": "pushIn",
      "outputs": [],
      "payable": true,
      "stateMutability": "payable",
      "type": "function"
    },
    {
      "constant": false,
      "inputs": [
        {
          "internalType": "uint256",
          "name": "x",
          "type": "uint256"
        }
      ],
      "name": "request",
      "outputs": [],
      "payable": true,
      "stateMutability": "payable",
      "type": "function"
    },
    {
      "constant": false,
      "inputs": [
        {
          "internalType": "uint256",
          "name": "x",
          "type": "uint256"
        }
      ],
      "name": "pushOut",
      "outputs": [],
      "payable": true,
      "stateMutability": "payable",
      "type": "function"
    }
  ],
  "bytecode": "0x608060405234801561001057600080fd5b50336000806101000a81548173ffffffffffffffffffffffffffffffffffffffff021916908373ffffffffffffffffffffffffffffffffffffffff16021790555061055e806100606000396000f3fe60806040526004361061003f5760003560e01c80632eb1bc5e1461004457806387d8178914610072578063d845a4b314610127578063ed68689d14610155575b600080fd5b6100706004803603602081101561005a57600080fd5b8101908080359060200190929190505050610183565b005b34801561007e57600080fd5b506100ab6004803603602081101561009557600080fd5b8101908080359060200190929190505050610281565b604051808481526020018373ffffffffffffffffffffffffffffffffffffffff1673ffffffffffffffffffffffffffffffffffffffff1681526020018273ffffffffffffffffffffffffffffffffffffffff1673ffffffffffffffffffffffffffffffffffffffff168152602001935050505060405180910390f35b6101536004803603602081101561013d57600080fd5b81019080803590602001909291905050506102eb565b005b6101816004803603602081101561016b57600080fd5b8101908080359060200190929190505050610343565b005b600034905060405180606001604052808281526020013373ffffffffffffffffffffffffffffffffffffffff1681526020013373ffffffffffffffffffffffffffffffffffffffff16815250600160008481526020019081526020016000206000820151816000015560208201518160010160006101000a81548173ffffffffffffffffffffffffffffffffffffffff021916908373ffffffffffffffffffffffffffffffffffffffff16021790555060408201518160020160006101000a81548173ffffffffffffffffffffffffffffffffffffffff021916908373ffffffffffffffffffffffffffffffffffffffff1602179055509050505050565b60016020528060005260406000206000915090508060000154908060010160009054906101000a900473ffffffffffffffffffffffffffffffffffffffff16908060020160009054906101000a900473ffffffffffffffffffffffffffffffffffffffff16905083565b336001600083815260200190815260200160002060010160006101000a81548173ffffffffffffffffffffffffffffffffffffffff021916908373ffffffffffffffffffffffffffffffffffffffff16021790555050565b3373ffffffffffffffffffffffffffffffffffffffff166000809054906101000a900473ffffffffffffffffffffffffffffffffffffffff1673ffffffffffffffffffffffffffffffffffffffff161461039c57600080fd5b600060016000838152602001908152602001600020600001549050600060016000848152602001908152602001600020600001819055506001600083815260200190815260200160002060010160009054906101000a900473ffffffffffffffffffffffffffffffffffffffff1673ffffffffffffffffffffffffffffffffffffffff166108fc829081150290604051600060405180830381858888f1935050505015801561044f573d6000803e3d6000fd5b507f8ed7db30df47fbd87811a5e8a95a94838f0c0241263d9a1865d6a2a3e10516e2336001600085815260200190815260200160002060010160009054906101000a900473ffffffffffffffffffffffffffffffffffffffff1634604051808473ffffffffffffffffffffffffffffffffffffffff1673ffffffffffffffffffffffffffffffffffffffff1681526020018373ffffffffffffffffffffffffffffffffffffffff1673ffffffffffffffffffffffffffffffffffffffff168152602001828152602001935050505060405180910390a1505056fea265627a7a72315820f18e37445b9a237336f8566c81b1cead105a3ce9ff65e6706c99f7ced1f52cda64736f6c63430005100032",
  "source": "pragma solidity >=0.4.21 <0.7.0;\n\n/// @title Pay - Facilitates payments.\ncontract Pay {\n\n    struct parties{\n        uint256 holdings;\n        address payable _to;\n        address payable _from;\n    }\n\n    address initiator ;\n    mapping(uint => parties) public payments;\n\n    constructor () public{\n         initiator = msg.sender;\n   \n        \n    }\n\n    event Payment(\n        address _from,\n        address payable _to,\n        uint holdings\n    );\n\n    function pushIn(uint x) public payable {\n        uint256 holdings = msg.value;\n        payments[x] = parties(holdings, msg.sender, msg.sender);\n    }\n\n    function request(uint x) public payable {\n        payments[x]._to =  msg.sender;\n    }\n\n    function pushOut(uint x) public payable {\n        require(initiator == msg.sender);\n        uint256 withdrawal = payments[x].holdings;\n        payments[x].holdings = 0;\n        (payments[x]._to).transfer(withdrawal);\n        emit Payment(msg.sender,(payments[x]._to), msg.value);\n    }\n}",
  "sourcePath": "/home/oem/InternationalOddJobs/contracts/Pay.sol",
  "compiler": {
    "name": "solc",
    "version": "0.5.16+commit.9c3226ce.Emscripten.clang"
  },
  "schemaVersion": "3.1.0",
  "updatedAt": "2020-05-27T18:38:18.495Z",
  "networkType": "ethereum",
  "devdoc": {
    "methods": {},
    "title": "Pay - Facilitates payments."
  },
  "userdoc": {
    "methods": {}
  }
}